{
  "contractName": "CourseMarketplace",
  "abi": [
    {
      "inputs": [],
      "stateMutability": "nonpayable",
      "type": "constructor"
    },
    {
      "inputs": [],
      "name": "CourseHasOwner",
      "type": "error"
    },
    {
      "inputs": [],
      "name": "owner",
      "outputs": [
        {
          "internalType": "address",
          "name": "",
          "type": "address"
        }
      ],
      "stateMutability": "view",
      "type": "function",
      "constant": true
    },
    {
      "inputs": [
        {
          "internalType": "bytes16",
          "name": "courseId",
          "type": "bytes16"
        }
      ],
      "name": "purchaseCourse",
      "outputs": [
        {
          "internalType": "bytes32",
          "name": "",
          "type": "bytes32"
        }
      ],
      "stateMutability": "payable",
      "type": "function",
      "payable": true
    },
    {
      "inputs": [],
      "name": "getCourseCount",
      "outputs": [
        {
          "internalType": "uint256",
          "name": "",
          "type": "uint256"
        }
      ],
      "stateMutability": "view",
      "type": "function",
      "constant": true
    },
    {
      "inputs": [
        {
          "internalType": "uint256",
          "name": "index",
          "type": "uint256"
        }
      ],
      "name": "getCourseHashAtIndex",
      "outputs": [
        {
          "internalType": "bytes32",
          "name": "",
          "type": "bytes32"
        }
      ],
      "stateMutability": "view",
      "type": "function",
      "constant": true
    },
    {
      "inputs": [
        {
          "internalType": "bytes32",
          "name": "courseHash",
          "type": "bytes32"
        }
      ],
      "name": "getCourseByHash",
      "outputs": [
        {
          "components": [
            {
              "internalType": "uint256",
              "name": "id",
              "type": "uint256"
            },
            {
              "internalType": "uint256",
              "name": "price",
              "type": "uint256"
            },
            {
              "internalType": "address",
              "name": "owner",
              "type": "address"
            }
          ],
          "internalType": "struct CourseMarketplace.Course",
          "name": "",
          "type": "tuple"
        }
      ],
      "stateMutability": "view",
      "type": "function",
      "constant": true
    },
    {
      "inputs": [
        {
          "internalType": "address",
          "name": "newOwner",
          "type": "address"
        }
      ],
      "name": "transferOwnership",
      "outputs": [],
      "stateMutability": "nonpayable",
      "type": "function"
    },
    {
      "inputs": [
        {
          "internalType": "uint256",
          "name": "Amount",
          "type": "uint256"
        }
      ],
      "name": "withdraw",
      "outputs": [],
      "stateMutability": "nonpayable",
      "type": "function"
    },
    {
      "inputs": [
        {
          "internalType": "bytes32",
          "name": "courseHash",
          "type": "bytes32"
        }
      ],
      "name": "sellCourse",
      "outputs": [],
      "stateMutability": "nonpayable",
      "type": "function"
    }
  ],
  "bytecode": "0x608060405234801561001057600080fd5b5033600360006101000a81548173ffffffffffffffffffffffffffffffffffffffff021916908373ffffffffffffffffffffffffffffffffffffffff16021790555061102d806100616000396000f3fe60806040526004361061007b5760003560e01c80638da5cb5b1161004e5780638da5cb5b1461014c57806396cfda0614610177578063c58d550f146101a2578063f2fde38b146101d25761007b565b80632e1a7d4d1461008057806343e53620146100a957806362e4e6ac146100d25780636d11290b1461010f575b600080fd5b34801561008c57600080fd5b506100a760048036038101906100a291906108f3565b6101fb565b005b3480156100b557600080fd5b506100d060048036038101906100cb9190610956565b61031e565b005b3480156100de57600080fd5b506100f960048036038101906100f49190610956565b6104c5565b6040516101069190610a15565b60405180910390f35b34801561011b57600080fd5b50610136600480360381019061013191906108f3565b61055b565b6040516101439190610a3f565b60405180910390f35b34801561015857600080fd5b50610161610578565b60405161016e9190610a69565b60405180910390f35b34801561018357600080fd5b5061018c61059e565b6040516101999190610a93565b60405180910390f35b6101bc60048036038101906101b79190610b06565b6105a8565b6040516101c99190610a3f565b60405180910390f35b3480156101de57600080fd5b506101f960048036038101906101f49190610b5f565b610740565b005b600360009054906101000a900473ffffffffffffffffffffffffffffffffffffffff1673ffffffffffffffffffffffffffffffffffffffff163373ffffffffffffffffffffffffffffffffffffffff161461028b576040517f08c379a000000000000000000000000000000000000000000000000000000000815260040161028290610be9565b60405180910390fd5b6000479050818110156102d3576040517f08c379a00000000000000000000000000000000000000000000000000000000081526004016102ca90610c55565b60405180910390fd5b3373ffffffffffffffffffffffffffffffffffffffff166108fc839081150290604051600060405180830381858888f19350505050158015610319573d6000803e3d6000fd5b505050565b600060019050600067016345785d8a00008261033a9190610ca4565b905061034583610814565b610384576040517f08c379a000000000000000000000000000000000000000000000000000000000815260040161037b90610d70565b60405180910390fd5b804710156103c7576040517f08c379a00000000000000000000000000000000000000000000000000000000081526004016103be90610ddc565b60405180910390fd5b60008084815260200190815260200160002060008082016000905560018201600090556002820160006101000a81549073ffffffffffffffffffffffffffffffffffffffff0219169055505060003373ffffffffffffffffffffffffffffffffffffffff168260405161043990610e2d565b60006040518083038185875af1925050503d8060008114610476576040519150601f19603f3d011682016040523d82523d6000602084013e61047b565b606091505b50509050806104bf576040517f08c379a00000000000000000000000000000000000000000000000000000000081526004016104b690610e8e565b60405180910390fd5b50505050565b6104cd610881565b60008083815260200190815260200160002060405180606001604052908160008201548152602001600182015481526020016002820160009054906101000a900473ffffffffffffffffffffffffffffffffffffffff1673ffffffffffffffffffffffffffffffffffffffff1673ffffffffffffffffffffffffffffffffffffffff16815250509050919050565b600060016000838152602001908152602001600020549050919050565b600360009054906101000a900473ffffffffffffffffffffffffffffffffffffffff1681565b6000600254905090565b600067016345785d8a00003410156105f5576040517f08c379a00000000000000000000000000000000000000000000000000000000081526004016105ec90610efa565b60405180910390fd5b6000823360405160200161060a929190610f83565b60405160208183030381529060405280519060200120905061062b81610814565b15610662576040517fb0fc2d9700000000000000000000000000000000000000000000000000000000815260040160405180910390fd5b60006002600081548092919061067790610faf565b91905055905081600160008381526020019081526020016000208190555060405180606001604052808281526020013481526020013373ffffffffffffffffffffffffffffffffffffffff16815250600080848152602001908152602001600020600082015181600001556020820151816001015560408201518160020160006101000a81548173ffffffffffffffffffffffffffffffffffffffff021916908373ffffffffffffffffffffffffffffffffffffffff1602179055509050508192505050919050565b600360009054906101000a900473ffffffffffffffffffffffffffffffffffffffff1673ffffffffffffffffffffffffffffffffffffffff163373ffffffffffffffffffffffffffffffffffffffff16146107d0576040517f08c379a00000000000000000000000000000000000000000000000000000000081526004016107c790610be9565b60405180910390fd5b80600360006101000a81548173ffffffffffffffffffffffffffffffffffffffff021916908373ffffffffffffffffffffffffffffffffffffffff16021790555050565b60003373ffffffffffffffffffffffffffffffffffffffff1660008084815260200190815260200160002060020160009054906101000a900473ffffffffffffffffffffffffffffffffffffffff1673ffffffffffffffffffffffffffffffffffffffff16149050919050565b60405180606001604052806000815260200160008152602001600073ffffffffffffffffffffffffffffffffffffffff1681525090565b600080fd5b6000819050919050565b6108d0816108bd565b81146108db57600080fd5b50565b6000813590506108ed816108c7565b92915050565b600060208284031215610909576109086108b8565b5b6000610917848285016108de565b91505092915050565b6000819050919050565b61093381610920565b811461093e57600080fd5b50565b6000813590506109508161092a565b92915050565b60006020828403121561096c5761096b6108b8565b5b600061097a84828501610941565b91505092915050565b61098c816108bd565b82525050565b600073ffffffffffffffffffffffffffffffffffffffff82169050919050565b60006109bd82610992565b9050919050565b6109cd816109b2565b82525050565b6060820160008201516109e96000850182610983565b5060208201516109fc6020850182610983565b506040820151610a0f60408501826109c4565b50505050565b6000606082019050610a2a60008301846109d3565b92915050565b610a3981610920565b82525050565b6000602082019050610a546000830184610a30565b92915050565b610a63816109b2565b82525050565b6000602082019050610a7e6000830184610a5a565b92915050565b610a8d816108bd565b82525050565b6000602082019050610aa86000830184610a84565b92915050565b60007fffffffffffffffffffffffffffffffff0000000000000000000000000000000082169050919050565b610ae381610aae565b8114610aee57600080fd5b50565b600081359050610b0081610ada565b92915050565b600060208284031215610b1c57610b1b6108b8565b5b6000610b2a84828501610af1565b91505092915050565b610b3c816109b2565b8114610b4757600080fd5b50565b600081359050610b5981610b33565b92915050565b600060208284031215610b7557610b746108b8565b5b6000610b8384828501610b4a565b91505092915050565b600082825260208201905092915050565b7f43616c6c6572206973206e6f7420746865206f776e6572000000000000000000600082015250565b6000610bd3601783610b8c565b9150610bde82610b9d565b602082019050919050565b60006020820190508181036000830152610c0281610bc6565b9050919050565b7f416d6f756e74203e2042616c616e63652063616e6e6f74207769746864726177600082015250565b6000610c3f602083610b8c565b9150610c4a82610c09565b602082019050919050565b60006020820190508181036000830152610c6e81610c32565b9050919050565b7f4e487b7100000000000000000000000000000000000000000000000000000000600052601160045260246000fd5b6000610caf826108bd565b9150610cba836108bd565b9250817fffffffffffffffffffffffffffffffffffffffffffffffffffffffffffffffff0483118215151615610cf357610cf2610c75565b5b828202905092915050565b7f596f7520646f6e27742068617665206f776e657273686970206f66207468697360008201527f20636f7572736500000000000000000000000000000000000000000000000000602082015250565b6000610d5a602783610b8c565b9150610d6582610cfe565b604082019050919050565b60006020820190508181036000830152610d8981610d4d565b9050919050565b7f496e73756666696369656e7420636f6e74726163742062616c616e6365000000600082015250565b6000610dc6601d83610b8c565b9150610dd182610d90565b602082019050919050565b60006020820190508181036000830152610df581610db9565b9050919050565b600081905092915050565b50565b6000610e17600083610dfc565b9150610e2282610e07565b600082019050919050565b6000610e3882610e0a565b9150819050919050565b7f5472616e73666572206661696c65640000000000000000000000000000000000600082015250565b6000610e78600f83610b8c565b9150610e8382610e42565b602082019050919050565b60006020820190508181036000830152610ea781610e6b565b9050919050565b7f20796f752073656e74206c657373207468616e20302e31206574686572000000600082015250565b6000610ee4601d83610b8c565b9150610eef82610eae565b602082019050919050565b60006020820190508181036000830152610f1381610ed7565b9050919050565b6000819050919050565b610f35610f3082610aae565b610f1a565b82525050565b60008160601b9050919050565b6000610f5382610f3b565b9050919050565b6000610f6582610f48565b9050919050565b610f7d610f78826109b2565b610f5a565b82525050565b6000610f8f8285610f24565b601082019150610f9f8284610f6c565b6014820191508190509392505050565b6000610fba826108bd565b91507fffffffffffffffffffffffffffffffffffffffffffffffffffffffffffffffff8203610fec57610feb610c75565b5b60018201905091905056fea26469706673582212204c24fd664b81adc1f253e1d08badb4059b2b900e57c1980395a7d60b1d4312ac64736f6c634300080d0033",
  "immutableReferences": {},
  "source": "// SPDX-License-Identifier: MIT\r\npragma solidity ^0.8.0;\r\n\r\ncontract CourseMarketplace {\r\n    \r\n\r\n    struct Course {\r\n        uint id; //32\r\n        uint price; //32\r\n        address owner; //20\r\n        \r\n    }\r\n\r\n    mapping(bytes32 => Course) private ownedCourses;\r\n    mapping(uint => bytes32) private ownedCourseHash;\r\n    uint private totalOwnedCourses;\r\n    address public owner;\r\n    error CourseHasOwner();\r\n\r\n    constructor(){\r\n        owner=msg.sender;\r\n    }\r\n\r\n    modifier onlyOwner() {\r\n        require(msg.sender == owner, \"Caller is not the owner\");\r\n        _;\r\n    }\r\n\r\n\r\n    function purchaseCourse(bytes16 courseId) external payable returns (bytes32) {\r\n        require(msg.value >= 0.1 ether,\" you sent less than 0.1 ether\");\r\n        bytes32 courseHash = keccak256(abi.encodePacked(courseId, msg.sender));\r\n        \r\n        if (hasCourseOwnership(courseHash)) {\r\n            revert CourseHasOwner();\r\n        }\r\n        \r\n        uint id = totalOwnedCourses++;\r\n        ownedCourseHash[id] = courseHash;\r\n        ownedCourses[courseHash] = Course({\r\n            id: id,\r\n            price: msg.value,\r\n            owner: msg.sender\r\n        });\r\n        \r\n        return courseHash;\r\n    }\r\n\r\n    function getCourseCount() external view returns (uint) {\r\n        return totalOwnedCourses;\r\n    }\r\n\r\n    function getCourseHashAtIndex(uint index) external view returns (bytes32) {\r\n        return ownedCourseHash[index];\r\n    }\r\n\r\n    function getCourseByHash(bytes32 courseHash) external view returns (Course memory) {\r\n        return ownedCourses[courseHash];\r\n    }\r\n\r\n\r\n    function hasCourseOwnership(bytes32 courseHash) private view returns (bool) {\r\n        return ownedCourses[courseHash].owner == msg.sender;\r\n    \r\n    }\r\n\r\n    function transferOwnership(address newOwner)public onlyOwner{\r\n        owner=newOwner;\r\n    }\r\n    function withdraw(uint Amount) external onlyOwner  { \r\n        uint balance = address(this).balance;\r\n        require(balance >= Amount, \"Amount > Balance cannot withdraw\");\r\n        payable(msg.sender).transfer(Amount);\r\n    }\r\n\r\n    function sellCourse(bytes32 courseHash) external {\r\n    uint AmountInEth = 1;  // Set amount in Ether\r\n    uint AmountInWei = AmountInEth * 0.1 ether; // Convert Ether to Wei\r\n    \r\n    require(hasCourseOwnership(courseHash), \"You don't have ownership of this course\");\r\n    require(address(this).balance >= AmountInWei, \"Insufficient contract balance\");\r\n\r\n    // Update state before transferring funds\r\n    delete ownedCourses[courseHash];\r\n\r\n    // Transfer funds in Wei to the course owner\r\n    (bool success, ) = payable(msg.sender).call{value: AmountInWei}(\"\");\r\n    require(success, \"Transfer failed\");\r\n}\r\n\r\n}\r\n",
  "sourcePath": "C:\\Users\\Mario Youssef\\Desktop\\Web3Dev\\UdemyWeb3\\nextweb3\\contracts\\CourseMarketplace.sol",
  "compiler": {
    "name": "solc",
    "version": "0.8.13+commit.abaa5c0e.Emscripten.clang"
  },
  "schemaVersion": "3.4.16",
  "updatedAt": "2024-11-06T12:30:57.552Z",
  "networkType": "ethereum",
  "devdoc": {
    "kind": "dev",
    "methods": {},
    "version": 1
  },
  "userdoc": {
    "kind": "user",
    "methods": {},
    "version": 1
  }
}